:020000040800F2
:10000000B03A0020610200082D10000825100008F9
:1000100029100008A10300081D13000800000000BB
:10002000000000000000000000000000A101000826
:10003000A503000800000000FD0100082F100008C3
:100040007B0200087B0200087B0200087B0200089C
:100050007B0200087B0200087B0200087B0200088C
:100060007B0200087B0200087B0200087B0200087C
:100070007B0200087B0200087B0200087B0200086C
:100080007B0200087B0200087B0200087B0200085C
:100090007B0200087B0200087B0200087B0200084C
:1000A0007B0200087B0200087B0200087B0200083C
:1000B0007B0200087B0200087B0200087B0200082C
:1000C0007B0200087B0200087B0200087B0200081C
:1000D0007B0200087B020008F11200087B02000886
:1000E0007B0200087B0200087B0200087B020008FC
:1000F0007B0200087B0200087B0200087B020008EC
:100100007B0200087B0200087B0200087B020008DB
:100110007B0200087B0200087B0200087B020008CB
:100120007B0200087B0200087B0200087B020008BB
:100130007B0200087B0200087B0200087B020008AB
:100140007B0200087B0200087B0200087B0200089B
:100150007B0200087B0200087B0200087B0200088B
:100160007B0200087B0200087B0200087B0200087B
:100170007B0200087B0200087B02000800000000F0
:100180007B0200087B020008DFF810D000F0DCF8EA
:100190000048004705140008AFF30080B03A002083
:1001A0002C4B19680868B0E8F04F80F30988BFF35A
:1001B0006F8F4FF0000080F311887047000000003F
:1001C00008480068006880F308884FF0000080F35A
:1001D000148862B661B6BFF34F8FBFF36F8F00DF35
:1001E00000BF00BF08ED00E0DFF80C00016841F43B
:1001F00070010160704700BF88ED00E0EFF30980F7
:10020000BFF36F8F134B1A681EF0100F08BF20ED5D
:10021000108A20E9F04F106009B44FF0500080F3CD
:100220001188BFF34F8FBFF36F8F01F027FF4FF09F
:10023000000080F3118809BC19680868B0E8F04F25
:100240001EF0100F08BFB0EC108A80F30988BFF3CE
:100250006F8F70471C000020EFF30580704700008F
:100260000648804706480047FEE7FEE7FEE7FEE750
:10027000FEE7FEE7FEE7FEE7FEE7FEE7B110000857
:10028000890100082DE9F05F0546002092469B4653
:1002900088460646814640241BE02846414647469C
:1002A000224600F041F853465A46C01A914110D3F5
:1002B00011461846224600F028F82D1A67EB01086F
:1002C0004F4622460120002100F01FF817EB0009DD
:1002D0004E41201EA4F10104DFDC484631462A4687
:1002E0004346BDE8F09FD2B201E000F8012B491E61
:1002F000FBD270470022F6E710B513460A460446C3
:100300001946FFF7F0FF204610BD202A04DB203AF3
:1003100000FA02F1002070479140C2F1200320FA58
:1003200003F3194390407047202A04DB203A21FA56
:1003300002F00021704721FA02F3D040C2F12002FE
:100340009140084319467047064C074D06E0E068A7
:1003500040F0010394E8070098471034AC42F6D30C
:10036000FFF716FF88260008A826000801460B485C
:10037000B0F80001401CC2B20848B0F80201904237
:1003800001D1002070470548B0F80001034B195413
:100390001846A0F800210120F4E70000CC0000205E
:1003A00000BFFEE77047000070B50446042000F06F
:1003B0006BFD0B4804700B4860434FF47A71B0FB3F
:1003C000F1F54FF0E020006940F002004FF0E0212D
:1003D000086108464561006940F00100086170BD90
:1003E0000C00002040420F00F8B502460B460025E5
:1003F000002400200021D6E0012606FA01F51E683F
:1004000006EA0504AC4274D11E7906F00306012EFB
:1004100004D01E7906F00306022E13D190684F0017
:100420000326BE40B0434F00DE68BE4030439060BC
:10043000506801268E40B0431E79C6F300168E40E8
:10044000304350601E7906F00306032E09D0D068B1
:100450004F000326BE40B0434F009E68BE4030436D
:10046000D0601E7906F00306022E13D1CF0802F1E8
:10047000200656F827004E07F70E0F26BE40B04361
:100480004F07FF0E1E69BE403043CF0802F1200621
:1004900046F8270010684F000326BE40B0431E797F
:1004A00006F003064F00BE40304310605E6806F45D
:1004B0004036002E76D000BF002600963C4E3668AF
:1004C00046F480463A4F3E603E46366806F4804623
:1004D000009600BF00BF374E8F0856F827008E07E2
:1004E000370F0F26BE40B043334EB24202D1002632
:1004F00024E057E0314EB24201D101261EE0304ED9
:10050000B24201D1022619E02E4EB24201D1032699
:1005100014E02D4EB24201D104260FE02B4EB24220
:1005200001D105260AE02A4EB24201D1062605E095
:10053000284EB24201D1072600E008268F073F0F60
:10054000BE4030431B4E8F0846F82700224E3068CD
:10055000A0435E6806F4801606B120431E4E30604C
:10056000361D3068A0435E6806F4001606B12043CD
:10057000194E361D3060184E361F3068A0435E6835
:1005800006F4003606B12043134E361F3060361F86
:100590003068A0435E6806F4803606B120430E4EF4
:1005A000083E3060491C1029FFF426AFF8BD00005A
:1005B0004438024008380140000002400004024074
:1005C00000080240000C02400010024000140240EB
:1005D00000180240001C0240083C014010B542696E
:1005E00021EA020302EA010443EA0443836110BDE5
:1005F0000AB1816101E00B04836170470148006822
:100600007047000010000020034800680349097883
:1006100008440149086070471000002018000020BD
:1006200010B50A48006840F40070084908600846A0
:10063000006840F480600860032000F083F80F2019
:1006400000F006F800F02AF8002010BD003C02403F
:1006500070B504460E4800784FF47A71B1FBF0F0A3
:100660000C490968B1FBF0F5284600F021FC08B1FF
:10067000012070BD102C07D200222146501E00F030
:1006800022F80548046001E00120F2E70020F0E7CD
:1006900018000020000000201400002070470146D0
:1006A000084600280DDB00BF00BF00F01F03012239
:1006B0009A4043099B0003F1E023C3F8002100BFE7
:1006C00000BF00BF70472DE9F05F80460D4616461B
:1006D000002700F025FE074639462A46334601F03A
:1006E0000700C0F1070ABAF1040F02D94FF0040A5B
:1006F00001E0C0F1070AD14600F1040ABAF1070F80
:1007000002D24FF0000A01E0A0F1030AD4464FF0F4
:10071000010A0AFA09FAAAF1010A0AEA020A0AFA1D
:100720000CFA4FF0010B0BFA0CFBABF1010B0BEACF
:10073000030B4AEA0B042146404600F0F9FDBDE8F0
:10074000F09F000000BF00F00702064B19684FF64B
:10075000FF031940044B0B4343EA0221014B19608C
:1007600000BF70470CED00E00000FA0570B50446CC
:100770000D460CB9012070BD5848006800F0070014
:10078000A84209D255490D700846006800F00700DC
:10079000A84201D00120EEE7207800F002000228F4
:1007A0001DD1207800F00400042805D14C480068D1
:1007B00040F4E0504A490860207800F0080008281A
:1007C00005D14748006840F4604045490860444806
:1007D000006820F0F000A1680843414908602078D3
:1007E00000F00100A8B36068012807D13C48083830
:1007F0000068C0F34040B8B90120BCE76068022837
:1008000002D06068032807D1354808380068C0F373
:10081000406048B90120AEE7314808380068C0F3AD
:10082000400008B90120A6E72D48006820F0030029
:10083000616808432A490860FFF7E0FE064609E0C0
:10084000FFF7DCFE801B41F28831884202D9032089
:1008500091E707E02248006800F00C006168B0EB07
:10086000810FEDD11D48006800F00700A84209D9AA
:100870001A490D700846006800F00700A84201D030
:10088000012078E7207800F00400042807D11448FC
:10089000006820F4E050E1680843114908602078BE
:1008A00000F00800082808D10D48006820F46040D6
:1008B000216940EAC1000A49086000F03FF8084990
:1008C0000968C1F30311074A515CC8400649086032
:1008D00006480068FFF7BCFE00204CE7003C0240E1
:1008E0000838024070260008000000201400002094
:1008F00001480068704700000000002000B5FFF7C5
:10090000F7FF04490968C1F38221034A515CC840DA
:1009100000BD0000083802408026000800B5FFF73F
:10092000E7FF04490968C1F34231034A515CC840FA
:1009300000BD000008380240802600082DE9F0477D
:10094000002400250026A1462548006800F00C0080
:1009500020B1042805D008283AD105E0DFF88490BA
:1009600039E0DFF8849036E01D48001F006800F091
:100970003F041B48001F006800F4800078B11A484B
:100980001749091F0968C1F38811A0FB01700146CE
:10099000224600233846FFF775FC05460EE0114855
:1009A0000F49091F0968C1F38811A0FB01700146B6
:1009B000224600233846FFF765FC05460848001F1D
:1009C0000068C0F30140401C4600B5FBF6F902E0A8
:1009D000DFF8109000BF00BF4846BDE8F087000078
:1009E000083802400024F40000127A00F8B50446EA
:1009F0000CB90120F8BD207800F00100002874D067
:100A0000F948006800F00C0004280DD0F648006892
:100A100000F00C00082813D1F348001F006800F410
:100A20008000B0F5800F0BD1EF4808380068C0F3A4
:100A30004040002859D06068002856D10120D9E7ED
:100A400000BF6068B0F5803F08D1E748083800680B
:100A500040F48030E449083908601EE06068B0F571
:100A6000A02F0DD1E0480838006840F48020DE490E
:100A7000083908600846006840F4803008600CE0DF
:100A8000D9480838006820F48030D7490839086010
:100A90000846006820F48020086000BF606890B1BC
:100AA000FFF7ACFD054606E0FFF7A8FD401B6428F4
:100AB00001D903209EE7CC4808380068C0F34040C5
:100AC0000028F1D011E0FFF799FD054606E0FFF799
:100AD00095FD401B642801D903208BE7C2480838E4
:100AE0000068C0F340400028F1D1207800F00200F7
:100AF00002285FD1BC48006800F00C0058B1BA4829
:100B0000006800F00C0008281CD1B748001F0068DE
:100B100000F48000B0B9B44808380068C0F3400061
:100B200020B1E068012801D0012063E7AE48083811
:100B3000006820F0F800216940EAC100AA4908399C
:100B4000086037E0E06800B30120A8490860FFF7BB
:100B500055FD054606E0FFF751FD401B022801D96F
:100B6000032047E7A04808380068C0F34000002889
:100B7000F1D09D480838006820F0F800216940EA6B
:100B8000C10099490839086014E0002097490860BD
:100B9000FFF734FD054606E0FFF730FD401B022855
:100BA00001D9032026E7904808380068C0F34000C8
:100BB0000028F1D1207800F0080008282CD16069C5
:100BC000A8B101208A490860FFF718FD054606E034
:100BD000FFF714FD401B022801D903200AE78248D1
:100BE0006C300068C0F340000028F1D014E0002011
:100BF0007F490860FFF702FD054606E0FFF7FEFCAF
:100C0000401B022801D90320F4E677486C300068C5
:100C1000C0F340000028F1D1207800F0040004283F
:100C200070D1002770483830006800F0805090B9CB
:100C300000BF002000906C483830006840F08050C1
:100C40006949383108600846006800F0805000901B
:100C500000BF00BF01276748006800F48070B0B98A
:100C60006448006840F4807062490860FFF7C6FC81
:100C7000054606E0FFF7C2FC401B022801D903200D
:100C8000B8E65C48006800F480700028F2D000BF2D
:100C9000A068012808D154486830006840F001007D
:100CA0005149683108601DE0A06805280DD14E4803
:100CB0006830006840F004004B496831086008461D
:100CC000006840F0010008600CE0474868300068A8
:100CD00020F001004449683108600846006820F0AF
:100CE0000400086000BFA068A8B1FFF787FC0546B4
:100CF00009E0FFF783FC401B41F28831884202D9AA
:100D0000032077E626E0384868300068C0F34000EA
:100D10000028EED013E0FFF771FC054608E0FFF76E
:100D20006DFC401B41F28831884201D9032061E605
:100D30002D4868300068C0F340000028EFD1012F33
:100D400007D129483830006820F0805026493831D2
:100D5000086000BFA069002845D02348006800F063
:100D60000C0008285DD0A069022845D100201F4949
:100D70000866FFF743FC054606E0FFF73FFC401B13
:100D8000022801D9032035E6174808380068C0F367
:100D900040600028F1D1D4E907010843616A40EAC4
:100DA00081110122A06AC2EB500041EA00412C20CF
:100DB000005D41EA00600C49091F086001200B49F1
:100DC0000866FFF71BFC054606E0FFF717FC401B13
:100DD000022801D903200DE6034808380068C0F353
:100DE00040600028F1D049E0083802400000474246
:100DF000800E474200700040002021490866FFF73E
:100E0000FDFB054606E0FFF7F9FB401B022801D970
:100E10000320EFE51B480068C0F340600028F2D1D2
:100E20002CE0A069012800D1E4E51648001D066801
:100E3000A069012820D006F48001E06981421BD11D
:100E400006F03F01206A814216D147F6C07030405B
:100E5000616AB0EB811F0FD106F440310122A06A14
:100E6000C2EB5000B1EB004F06D106F070612C20B0
:100E7000005DB1EB006F01D00120BBE50020B9E5BA
:100E80000000474200380240042808D14FF0E0211A
:100E9000096941F004014FF0E022116107E04FF0D1
:100EA000E021096921F004014FF0E022116170474F
:100EB00070B504462546681EB0F1807F01D301203D
:100EC0000FE0681E4FF0E02148610F214FF0FF3026
:100ED00000F02EFA00204FF0E02188610720086121
:100EE000002070BD10B504460CB9012010BDA069EA
:100EF00000B100E000BF94F8410028B9002084F858
:100F00004000204600F02AF8242084F841002068A0
:100F1000C06820F400502168C860204600F0D2F874
:100F20002068006920F490402168086120684069C9
:100F300020F02A00216848612068C06840F4005011
:100F40002168C86000206064202084F8410084F893
:100F500042000020606300BFC8E7000010B586B003
:100F600004462D492068884254D100BF00BF0020AC
:100F700000902A48006840F400302849086008467C
:100F8000006800F40030009000BF00BF00BF00BF49
:100F900000BF0020009021481038006840F0010098
:100FA0001E49103908600846006800F001000090F2
:100FB00000BF00BF00BF00BF00BF00200090084678
:100FC000006840F0010008600846006800F0010079
:100FD000009000BF00BF00BF0420019002200290DB
:100FE00001200390022004900720059001A90C48DD
:100FF000FFF7FAF9082001900720059001A9084899
:10100000FFF7F2F92620FFF74AFB032211462620BC
:10101000FFF759FB06B010BD0044004040380240C5
:101020000000024000BFFEE700BFFEE7704710B5BA
:10103000FFF7EAFA01F056F9012801D001F01CF996
:1010400010BD00B591B0302105A8FFF753F9142168
:101050006846FFF74FF90120059000040690022032
:101060000B9041050C9108210D914FF4A8710E9140
:1010700002210F910721109105A8FFF7B7FC10B1CD
:10108000012011B000BD0F2000900220019000202F
:1010900002904FF4A05003904FF48050049005212B
:1010A0006846FFF763FB08B10120EAE70020E8E7A4
:1010B0000348006840F47000014908607047000070
:1010C00088ED00E02DE9F84F04462068006920F41F
:1010D0004050E1680843216808612169A06808431D
:1010E00061690843E169084300902068C06849F2DB
:1010F0000C618843009908432168C86020684069F2
:1011000020F44070A169084321684861764920684D
:10111000884203D075492068884203D1FFF7FEFB5F
:10112000814602E0FFF7EAFB8146E069B0F5004F37
:101130006CD102206168A0FB015003461920A9FB75
:10114000007001462A463846FFF79CF86421B0FB40
:10115000F1F04FEA001A02206168A0FB01510B4632
:101160001920A9FB00712A463846FFF78BF8834601
:1011700002206168A0FB015003461920A9FB007101
:101180002A463846FFF77EF86421B0FBF1F000EB09
:10119000C00101EB0010ABEB8000322101EBC0007D
:1011A0006421B0FBF1F000F0F8000AEB400A0220E5
:1011B0006168A0FB015003461920A9FB007001469D
:1011C0002A463846FFF75EF8834602206168A0FB96
:1011D000015003461920A9FB00712A463846FFF743
:1011E00051F86421B0FBF1F000EBC00101EB0010FD
:1011F000ABEB8000322101EBC0006421B0FBF1F0C9
:1012000000F007005044216888606AE004206168AB
:10121000A0FB015003461920A9FB007001462A4695
:101220003846FFF72FF8824604206168A0FB015082
:1012300003461920A9FB007001462A463846FFF7ED
:1012400021F86421B0FBF1F000EBC00101EB0010CC
:10125000AAEB8000322101EB00106421B0FBF1F019
:1012600000F0F00A04206168A0FB01700346192019
:10127000A9FB00513A462846FFF704F86421B0FB69
:10128000F1F00AEB001A04206168A0FB01510B4643
:101290001920A9FB00712A463846FEF7F3FF834662
:1012A00004206168A0FB015003461920A9FB0070CF
:1012B00001462A463846FEF7E5FF6421B0FBF1F00F
:1012C00000EBC00101EB0010ABEB8000322101EB21
:1012D00000106421B0FBF1F000F00F0050442168D1
:1012E0008860BDE8F88F0000001001400014014044
:1012F00010B5094800680068C0F3401050B10648B6
:1013000000684068C4B2044800684068C4B220461F
:10131000FFF72CF810BD00008400002000BFFEE79E
:1013200002480068C0F30220704700000CED00E0A6
:1013300010B5002804DB0A07130E054A135406E013
:101340000A07140E034A00F00F031B1FD45410BDEC
:1013500000E400E018ED00E002E008C8121F08C138
:10136000002AFAD170477047002001E001C1121F26
:10137000002AFBD1704700001CB50648012100235C
:101380008022CDE9001004A1064800F08FFF00F094
:1013900035FE1CBD0400002073746172745F7461BB
:1013A000736B0000F51B000800B587B000BF00BFDD
:1013B000002001901148006840F004000F490860C7
:1013C0000846006800F00400019000BF00BF00BFA5
:1013D0004FF40050029001200390049002200590E9
:1013E00002A90748FFF700F800BF00224FF40051A0
:1013F0000348FFF7FDF800BF07B000BD30380240DA
:101400000008024010B5FFF70BF9FFF71AFEA820FD
:10141000FEF7CAFF4FF4E13000F01CFCFFF7C4FFF9
:10142000FFF7AAFF002010BD2DE9F04705460E4644
:10143000294807682948D0F800802948D0F800904A
:1014400028480068001D00F023FC50B925480068BA
:1014500090F82C10012088402349096881432248D4
:101460000160681CE0B9DEB100BF204948681D4931
:10147000096888601B4982680968CA601949096857
:10148000091D8268516017490968091D8160174A62
:10149000144909684A6111460968491C116018E03D
:1014A0007C19104800684460BC4206D20D480168AF
:1014B000091D484600F010FC0BE00A480168091DB0
:1014C000404600F009FC0A480068844201D20848FE
:1014D0000460BDE8F08700003000002020000020FC
:1014E000240000201C00002034000020980200206E
:1014F0004C00002010B5044600F014FC324800688F
:10150000401C314908603148006840B92F480460E8
:101510000846006801280DD100F09EF90AE02C4829
:10152000006838B929480068C06AE16A884201D871
:101530002648046027480068401C2649086000BF10
:1015400094F82C1001208840234909680843224957
:10155000086000BFE16A01EB8101204A02EB8101D2
:101560004868A0608268E260211D826851608160E5
:10157000E16A01EB8101194A02EB81026261E16AD1
:1015800001EB8101154A52F82110491CE26A02EB75
:101590008202124B43F8221000BF00BF00F0ECFBA8
:1015A0000B48006878B100BF08480068C06AE16A6B
:1015B000884207D24FF0805009490860BFF34F8F2F
:1015C000BFF36F8F00BF10BD2C0000201C00002057
:1015D000380000204800002034000020E4010020F2
:1015E00004ED00E010B516E000F09CFB0C48C0686C
:1015F000C468201D00F04CFB0A480068401E0949E1
:10160000086009480068401E0749086000F0B4FB04
:10161000204600F06CF8044800680028E4D110BDB2
:10162000840200202C00002028000020F0B587B0A4
:1016300001260027002408E012A0005D03A9085538
:1016400003A8005D00B902E0641C102CF4DB00BFAD
:10165000002510E00D4F0E4800EB850000210B46E1
:101660008022CDE9001003A9384600F01FFE06468F
:1016700006B902E06D1C012DECDB00BF304607B05F
:10168000F0BD000049444C45000000006D17000803
:10169000500000202DE9FF5F074688461646994610
:1016A000DDE90EABB00000F093F9054675B15420AA
:1016B00000F08EF904462CB154212046FEF71AFEA4
:1016C000256304E0284600F075FB00E0002454B1D7
:1016D00000204B4632464146CDE900ABCDE9024001
:1016E000384600F057F8204604B0BDE8F09F10B52A
:1016F0000446206B00F05EFB204600F05BFB10BD53
:1017000030B54FF42053144800F007042CB1C01D2D
:1017100020F00700104C041B1B1B104C2060002401
:101720000E4D6C60C218083A22F007020C4C226081
:1017300000240B4D2D686C60094D2D682C6001460E
:10174000541A4C60064C24680C60064D4C682C60A2
:10175000054D4C682C6030BDAC0200205C000020C0
:10176000640000206C0000206800002000BFFFF72C
:1017700039FF064800680128F9D94FF08050044924
:101780000860BFF34F8FBFF36F8FF0E7E4010020D5
:1017900004ED00E02DE9FF5F81460F469246DDE94A
:1017A0000E6B109CAAF10100216B01EB800828F060
:1017B000070808F0070008B9012000E0002050B930
:1017C00000BF502080F31188BFF34F8FBFF36F8F9E
:1017D00000BF00BFFEE77FB1002507E0795D04F19F
:1017E00034004155785D00B902E06D1C102DF5D331
:1017F00000BF002143200155052E01D2012000E049
:10180000002050B900BF502080F31188BFF34F8FE4
:10181000BFF36F8F00BF00BFFEE7052E00D3042685
:10182000E6626664201D00F054FA04F1180000F02E
:1018300050FA2461C6F10500A06164624946404641
:10184000039A00F0C1F92060BBF1000F01D0CBF882
:101850000040BDE8FF9F000010B5002407E004EB46
:1018600084010F4A02EB810000F026FA641C052C6B
:10187000F5D30C4800F020FA0B4800F01DFA0B4895
:1018800000F01AFA0A4800F017FA0A4800F014FAB1
:1018900004480949086004480849086010BD000070
:1018A000E4010020480200205C02002070020020B9
:1018B0008402002098020020200000202400002044
:1018C00010B50146224800E0006803688B42FBD354
:1018D0001F4B984214D01F4B984204D31E4B984282
:1018E00001D8012300E0002353B900BF502383F344
:1018F0001188BFF34F8FBFF36F8F00BF00BFFEE7AC
:101900000246436813448B4204D143684C68234425
:10191000436001460A464B6813440468A34211D150
:101920000E4C03682468A34208D04B6804686468BE
:1019300023444B6003681B680B6005E0074B1B6882
:101940000B6001E003680B60884200D0016010BDAD
:101950005C000020AC020020AB2A002064000020C4
:1019600009480068006808B9012000E0002020B1A3
:101970004FF0FF300549086005E003480068C06883
:101980000068024908607047200000204C000020D9
:101990000E480068401C08B9012000E0002050B942
:1019A00000BF502080F31188BFF34F8FBFF36F8FBC
:1019B00000BF00BFFEE700BF502080F31188BFF3D7
:1019C0004F8FBFF36F8F00BF00BFFEE7780000208E
:1019D0002DE9F04705464FF00008DDB115F1090F7C
:1019E00001D9012000E0002098B9083505F0070072
:1019F00080B105F00700C0F10809C9F1FF30A84225
:101A000001D2012000E0002008B94D4402E0002589
:101A100000E0002500F02AFB6448006808B9FFF7E1
:101A20006FFE012000EBE570002877D0002DFCD080
:101A30005F480068854271D85E4E304604685E4853
:101A4000844204D35D48844201D8012000E0002094
:101A500050B900BF502080F31188BFF34F8FBFF300
:101A60006F8F00BF00BFFEE716E02646246852488D
:101A7000844204D35148844201D8012000E0002070
:101A800050B900BF502080F31188BFF34F8FBFF3D0
:101A90006F8F00BF00BFFEE76068A84202D22068D7
:101AA0000028E2D141480068844267D0306800F1E4
:101AB00008084148804504D34048804501D80120AA
:101AC00000E0002050B900BF502080F31188BFF320
:101AD0004F8FBFF36F8F00BF00BFFEE720683060FD
:101AE0006068A84201D2012000E0002080F00100DF
:101AF00050B900BF502080F31188BFF34F8FBFF360
:101B00006F8F00BF00BFFEE76068401B10281AD926
:101B1000671907F0070010B9012001E02EE000204E
:101B200050B900BF502080F31188BFF34F8FBFF32F
:101B30006F8F00BF00BFFEE76068401B7860656084
:101B40003068386037601A4960680968081A1849AF
:101B50000860084600681A490968884203D2144898
:101B6000006817490860606840F00040606000202D
:101B7000206014480068401C1249086000F0A8FC6E
:101B800008F0070008B9012000E0002050B900BFAC
:101B9000502080F31188BFF34F8FBFF36F8F00BFCA
:101BA00000BFFEE74046BDE8F0870000640000206B
:101BB000680000205C000020AC020020AB2A00205E
:101BC0006C00002070000020001F4FF08073036045
:101BD000001F21F001030360001F054B0360143850
:101BE0000260001F6FF0020303602038704700009E
:101BF000911900081CB5044600F094F80848022129
:101C000000238022CDE9001006A1084800F04EFB19
:101C10000748006800F068F900F0AEF81CBD00004D
:101C2000080000207461736B31000000351C00084F
:101C3000040000200AE000BF4FF400510448FEF702
:101C4000CDFC00BF4FF4FA7000F020F9F3E700007C
:101C50000008024010B504460B480C4908600846CD
:101C6000446000218160C160016181610C2141619A
:101C7000FFF738F905480068C06840F020000349C4
:101C80000968C86010BD00000044004084000020C6
:101C900001460A69D1E901309860D1E90103586031
:101CA0005068884201D1886850600020086110683F
:101CB000401E10601068704700F1080141604FF04D
:101CC000FF31816000F10801C16001610021016004
:101CD000704700210161704710B502460B685C1C1B
:101CE0000CB9106907E002F1080000E040684468A0
:101CF00024689C42FAD944684C604C68A1608860B2
:101D000041600A611468641C146010BD42684A6036
:101D100093688B60936859609160086103685B1CED
:101D20000360704700BF502080F31188BFF34F8FCE
:101D3000BFF36F8F00BF0E480068401C0C4908605D
:101D400008460068012812D10A480068C0B208B9E4
:101D5000012000E0002050B900BF502080F311881E
:101D6000BFF34F8FBFF36F8F00BF00BFFEE7704719
:101D70007800002004ED00E00D48006850B900BF75
:101D8000502080F31188BFF34F8FBFF36F8F00BFD8
:101D900000BFFEE706480068401E05490860084687
:101DA000006820B9002080F3118800BF00BF704791
:101DB0007800002070B506463546002E50D0083D0C
:101DC0002C462848844204D32748844201D8012065
:101DD00000E0002050B900BF502080F31188BFF30D
:101DE0004F8FBFF36F8F00BF00BFFEE76068C00F6B
:101DF00050B900BF502080F31188BFF34F8FBFF35D
:101E00006F8F00BF00BFFEE7206808B9012000E027
:101E1000002050B900BF502080F31188BFF34F8FCE
:101E2000BFF36F8F00BF00BFFEE76068C00FB8B19F
:101E30002068A8B9606820F00040606000F016F9E2
:101E40000A49606809680844084908602046FFF7A5
:101E500037FD07480068401C0549086000F038FB62
:101E600070BD0000AC020020AB2A002068000020FA
:101E70007400002000204FF0E021086188610248D2
:101E800048610720086170473F90020070B5044622
:101E90000025D4B100F0EAF811480068012800D10B
:101EA00000E0002050B900BF502080F31188BFF33C
:101EB0004F8FBFF36F8F00BF00BFFEE700212046AA
:101EC000FFF7B2FA00F004FB05463DB94FF0805031
:101ED00004490860BFF34F8FBFF36F8F70BD0000E0
:101EE0005800002004ED00E02DE9F04105460026F1
:101EF000FFF718FF15B93748006800E02846044688
:101F0000201DFFF7C5FE88B900BFE06A00EB800026
:101F1000314951F8200040B994F82C100120884034
:101F20002E49096881432D48016000BFA06A18B19D
:101F300004F11800FFF7ACFE29480068401C28494E
:101F4000086024480068844201D1012000E000209C
:101F500007462448006858B157B1211D2248FFF7B1
:101F6000D5FE22480068401C20490860012606E092
:101F70001F480068401E1E490860FFF7F1FCFFF78C
:101F8000FBFE012E02D02046FFF7B1FB154800688A
:101F9000E8B110480068844219D11648006808B9B1
:101FA000012000E0002050B900BF502080F31188CC
:101FB000BFF34F8FBFF36F8F00BF00BFFEE74FF03F
:101FC00080500D490860BFF34F8FBFF36F8FBDE89E
:101FD000F08100001C000020E401002034000020FB
:101FE0004800002038000020840200202800002043
:101FF0002C0000205800002004ED00E010B5FFF791
:1020000015FB0446012C15D100BF502080F3118828
:10201000BFF34F8FBFF36F8F00BF4FF0FF300F49FB
:10202000086001200E49086000200E49086000F099
:102030006FF810E0601C08B1012000E0002050B9EA
:1020400000BF502080F31188BFF34F8FBFF36F8F15
:1020500000BF00BFFEE70448006810BD4C00002030
:1020600038000020300000205400002002480068A2
:10207000401C014908607047580000201F48006854
:1020800018B101201E49086036E000201C49086094
:1020900000BF1C480068B0FA80F0C0F11F0101EBDE
:1020A0008100194A52F8200008B1012000E0002008
:1020B00050B900BF502080F31188BFF34F8FBFF39A
:1020C0006F8F00BF00BFFEE700BF01EB81020E4B28
:1020D00003EB820042685268426000F108024368E4
:1020E000934201D1C26842604268D268074B1A60CD
:1020F00000BF00BF1846006870470000580000206D
:102100004000002034000020E40100201C000020DA
:102110000EB5524800685249884201D0012000E0C3
:10212000002050B900BF502080F31188BFF34F8FBB
:10213000BFF36F8F00BF00BFFEE748480068484903
:10214000491E884201D0012000E0002050B900BFA4
:10215000502080F31188BFF34F8FBFF36F8F00BF04
:1021600000BFFEE7002001903E490846007802903B
:10217000FF200A4610700846007800909DF8000085
:1021800000F05000384A10701046007850B900BF77
:10219000502080F31188BFF34F8FBFF36F8F00BFC4
:1021A00000BFFEE79DF800205020904308B90120B1
:1021B00000E0002050B900BF502080F31188BFF329
:1021C0004F8FBFF36F8F00BF00BFFEE707E001989E
:1021D000401C01909DF800004006000E00909DF804
:1021E000000000F080008028F1D00198082803D179
:1021F00000201E4A106004E00198C0F107001B4A4D
:1022000010601A4800680002184A106010460088E2
:1022100000F4E06010609DF80800124A10700F484A
:102220002030006840F47F000C49203108600846E7
:10223000006840F07F400860FFF71CFE00200C495A
:102240000860FDF7D1FF0B48006840F040400949A5
:102250000860FDF7B5FF00200EBD000000ED00E0B6
:1022600071C20F4100E400E07C00002080000020EB
:102270007800002034EF00E010B500BF502080F35C
:102280001188BFF34F8FBFF36F8F00BF00F03AF894
:1022900018B14FF080500449086000BF002080F35F
:1022A000118800BF10BD000004ED00E02DE9FC5FC7
:1022B00006460F4690469946DDE90CAB4B46424632
:1022C00039463046CDE900ABFFF7E4F9054625B1C4
:1022D0002846FFF70FF9012401E04FF0FF342046B4
:1022E000BDE8FC9F0549096809B9012005E00449DA
:1022F000096809B9022000E000207047380000207A
:10230000580000202DE9F0414FF0000865480068B2
:1023100000287DD164480068451C634805601DBBEA
:1023200000BF62480068006808B9012000E0002092
:1023300050B900BF502080F31188BFF34F8FBFF317
:102340006F8F00BF00BFFEE7584807685848006815
:10235000564908605648076056480068401C554971
:102360000860FFF7FDFA00BF5348006885427ED33E
:1023700000BF4E480068006808B9012000E0002056
:1023800020B14FF0FF304C4908606FE047480068CB
:10239000C068C4686668B54202D24748066065E016
:1023A00000BF6069D4E902128A60D4E902214A6060
:1023B000211D42688A4201D1E168416000226261C8
:1023C0000168491E016000BFA06AA0B100BFA06AF9
:1023D000D4E907128A60D4E907214A6004F11801A0
:1023E00042688A4201D1216A41600022A2620168EA
:1023F000491E016000BF00BF94F82C1001208840E6
:102400002E49096808432D49086000BFE16A00E0D1
:102410003FE001EB81012A4A02EB81014868A0609C
:102420008268E260211D826851608160E16A01EB8F
:102430008101234A02EB81026261E16A01EB8101C1
:102440001F4A52F82110491CE26A02EB82021C4B1F
:1024500043F8221000BF00BF1A49E06A0968C96A40
:10246000884286D94FF0010883E700E000BF154895
:102470000068C06A00EB8000114951F82000012873
:1024800001D94FF001081048006808B14FF0010869
:1024900004E00E480068401C0C4908604046BDE856
:1024A000F0810000580000203000002020000020B3
:1024B00024000020440000204C00002034000020B4
:1024C000E40100201C000020400000203C0000200F
:1024D0002DE9F04100240027FFF724FC00255B488C
:1024E000006808B1012000E0002050B900BF502072
:1024F00080F31188BFF34F8FBFF36F8F00BF00BF12
:10250000FEE752480068401E5049086008460068CF
:1025100000286ED14E48006800286AD064E04D481B
:10252000C068C46800BFA06AD4E907128A60D4E911
:1025300007214A6004F1180142688A4201D1216AE8
:1025400041600022A2620168491E016000BF00BF15
:102550006069D4E902128A60D4E902214A60211D2F
:1025600042688A4201D1E1684160002262610168EB
:10257000491E016000BF00BF94F82C100120884064
:102580003549096808433449086000BFE16A01EB36
:102590008101324A02EB81014868A0608268E260F2
:1025A000211D826851608160E16A01EB81012B4A43
:1025B00002EB81026261E16A01EB8101274A52F874
:1025C0002110491CE26A02EB8202244B43F82210DC
:1025D00000BF00BF2249E06A0968C96A884203D97E
:1025E0000120204941F825001A48006810B901204F
:1025F00001E026E00020002891D00CB1FFF7B0F9EF
:10260000194806686EB100BFFFF77CFE18B10120C3
:10261000144941F82500761E002EF5D100201249FC
:102620000860104850F8250058B1012700BF0C4839
:10263000006838070D490860BFF34F8FBFF36F8FF5
:1026400000BFFFF799FB3846BDE8F0815800002035
:102650002C0000207002002034000020E401002043
:102660001C000020400000203C00002004ED00E0A1
:102670000000000000000000010203040607080932
:102680000000000001020304A8260008000000204A
:1026900084000000581300082C2700088400002044
:1026A0002C3A0000681300080024F4000000000029
:1026B000000000000000000000000000100000000A
:1026C0000100000000000000000000000000000009
:1026D00000000000000000000000000000000000FA
:1026E00000000000000000000000000000000000EA
:1026F00000000000000000000000000004000000D6
:1027000000000000000000000000000000000000C9
:1027100000000000000000000000000000000000B9
:0C272000AAAAAAAA000000000000000005
:040000050800018965
:00000001FF
